:100000000C9463000C948B000C948B000C948B006C
:100010000C948B000C948B000C948B000C948B0034
:100020000C948B000C94BB080C948B000C94AC08C3
:100030000C948B000C948B000C948B000C948B0014
:100040000C940A080C948B000C947A080C945408B5
:100050000C948B000C948B000C948B000C948B00F4
:100060000C948B000C948B000000000023002600F1
:10007000290000000000240027002A0000000000E2
:10008000250028002B0004040404040404040202D4
:100090000202020203030303030301020408102007
:1000A0004080010204081020010204081020000012
:1000B0000008000201000003040700000000000027
:1000C0000000AB09180B11241FBECFEFD8E0DEBF34
:1000D000CDBF23E0A6E3B2E001C01D92A432B20777
:1000E000E1F712E0A0E0B1E0E0E4FFE102C005903A
:1000F0000D92A633B107D9F710E0C2E6D0E004C0F4
:100100002197FE010E94910DC136D107C9F70E94C7
:10011000E5090C94930F0C94000090E0FC01E2556B
:10012000FF4F2491FC01E656FF4F3491FC01EA5742
:10013000FF4FE491EE2309F43CC0222339F1233030
:1001400091F038F42130A9F0223001F584B58F7D8B
:1001500012C0273091F02830A1F02430B9F48091FA
:1001600080008F7D03C0809180008F778093800016
:100170000DC084B58F7784BD09C08091B0008F77A2
:1001800003C08091B0008F7D8093B000F0E0EE0F4F
:10019000FF1FE458FF4FA591B4919FB7F8946111E8
:1001A00004C08C913095382302C0EC913E2B3C93D7
:1001B0009FBF0895CF93DF9390E0FC01E656FF4F79
:1001C0002491FC01EA57FF4F8491882361F190E06C
:1001D000880F991FFC01EE58FF4FC591D491FC0187
:1001E000E458FF4FA591B491611109C09FB7F894ED
:1001F0008881209582238883EC912E230BC0623066
:1002000061F49FB7F8948881322F309583238883D7
:10021000EC912E2B2C939FBF06C08FB7F894E881EA
:100220002E2B28838FBFDF91CF910895CF92DF923D
:10023000EF92FF920F931F93CF93DF936C017A019C
:100240008B01C0E0D0E0CE15DF0581F0D8016D91C3
:100250008D01D601ED91FC910190F081E02DC60158
:100260000995892B11F02196EECF7E01C701DF9110
:10027000CF911F910F91FF90EF90DF90CF90089555
:10028000089580E090E00895FC01538D448D252F62
:1002900030E0842F90E0821B930B541710F0CF9620
:1002A000089501970895FC01918D828D981761F052
:1002B000828DDF01A80FB11D5D968C91928D9F5F9D
:1002C0009F73928F90E008958FEF9FEF0895FC0148
:1002D000918D828D981731F0828DE80FF11D858DFB
:1002E00090E008958FEF9FEF0895FC01918D228D8E
:1002F000892F90E0805C9F4F821B91098F73992713
:10030000089581E692E00E94750121E0892B09F4AD
:1003100020E0822F0895FC01848DDF01A80FB11D1C
:10032000A35ABF4F2C91848D90E001968F7399272B
:10033000848FA689B7892C93A089B1898C91837009
:1003400080648C93938D848D981306C00288F38902
:10035000E02D80818F7D80830895EF92FF920F932F
:100360001F93CF93DF93EC0181E0888F9B8D8C8D61
:10037000981305C0E889F989808185FD26C0F62E8D
:100380000B8D10E00F5F1F4F0F731127E02E8C8D28
:10039000E8120CC00FB607FCFACFE889F989808112
:1003A00085FFF5CFCE010E948B01F1CF8B8DFE0131
:1003B000E80FF11DE35AFF4FF0829FB7F8940B8FBF
:1003C000EA89FB89808180620AC09FB7F894EE8930
:1003D000FF896083E889F9898081837080648083E4
:1003E0009FBF81E090E0DF91CF911F910F91FF902F
:1003F000EF900895CF93DF93EC01888D8823C9F0A7
:10040000EA89FB89808185FD05C0A889B9898C911D
:1004100086FD0FC00FB607FCF5CF808185FFF2CFB8
:10042000A889B9898C9185FFEDCFCE010E948B01FF
:10043000E7CFDF91CF910895DC011496EC91F0E0C5
:10044000CF01880F991FE80FF91FE65CFD4F8081EF
:100450008F7D80830895CF93FC01C4818FEF8C0F33
:100460008830A8F5072E000C880B990B0E94230BEF
:1004700025E535E545E051E40E94820B20E030E8B7
:100480004BE354E40E94780C0E94560D6E3EF2E05D
:100490007F073CF06B3C28E072072CF06AEC78E0B8
:1004A00002C06EEE72E068507109EC2FF0E0CB01F3
:1004B000880F892F881F990B9F01220F331FE20F8E
:1004C000F31FE65CFD4F8183660F60956283CF91D9
:1004D00008950F931F93CF93DC011296CC91209136
:1004E0003902211122C0EAE3F2E022E532E05BE0CA
:1004F00047E55483458333962E173F07D1F72EE304
:1005000020933B0210923802109237021092700032
:100510001092B00022E02093B1001092B20021E0CE
:1005200027BB2093700020933902FC0124812223F1
:10053000B1F08C0161E08C2F0E94DA00D801149692
:10054000EC91F0E0CF01880F991FE80FF91FE65CEE
:10055000FD4FCF718081807EC82BC062C083CF9158
:100560001F910F910895EF92FF920F931F93CF93D6
:10057000DF938C018091FE028823E1F31092FE024A
:10058000780186E0E80EF11CC0E0D0E0F80184813B
:100590009581C817D90734F5F701A191B1917F0171
:1005A000F8012281338114968D919C911597820FC9
:1005B000931F15969C938E93149712962D913C91B0
:1005C00013978217930764F015961C921E92149746
:1005D000ED91FC9111970280F381E02DCD010995F9
:1005E0002196D4CFDF91CF911F910F91FF90EF9083
:1005F0000895FC0124813581293031057CF4F9010D
:100600003396EE0FFF1FE80FF91F718360832F5F92
:100610003F4FFC013583248381E0089580E00895F5
:100620000F931F93CF93DF938C01DC011696CD912E
:10063000DC9117972AE939E949E95EE36C817D810C
:100640008E819F810E941C0BF801A085B185181630
:100650001CF08981811117C081E088831982ED9196
:10066000FC9111970280F381E02DCD010995D8010D
:100670001A968D919C911B97DC01ED91FC91019054
:10068000F081E02D12C01882ED91FC91119701903C
:10069000F081E02DCD010995F80182859385DC017B
:1006A000ED91FC910280F381E02DDF91CF911F91BC
:1006B0000F91099460E0FC0182810C948D0061E04F
:1006C000FC0182810C948D000F931F93CF93DF93D5
:1006D000EC0181E090E09D878C871B861A868885D7
:1006E0009985DC01ED91FC910190F081E02D099557
:1006F00000E010E0EE81FF812281338188859985B9
:1007000002171307A4F46A857B85DC01ED91FC9147
:100710000280F381E02D09952A853B858C859D8596
:10072000820F931F9B878A870F5F1F4FE3CFDC01E8
:10073000ED91FC910480F581E02DDF91CF911F9127
:100740000F910994CF93DF93EC018C859D85DC019B
:10075000ED91FC910190F081E02D0995EE81FF81F2
:100760006483758386839783DF91CF910895FC011D
:1007700073836283158214820895EF92FF920F9320
:100780001F93CF93DF93EC017B836A831D821C82CE
:100790007D876C8784E090E00E94970D8C018AE150
:1007A000E82E81E0F82ED8011196FC92EE928AE0B4
:1007B00090E013969C938E93129761E00E94DA006A
:1007C0001B870A8784E090E00E94970D8C01FC0152
:1007D000F182E0828DE090E09383828361E00E9469
:1007E000DA00198708878A859B85DC01ED91FC91E9
:1007F0000190F081E02DDF91CF911F910F91FF903B
:10080000EF900994CF93DF93EC017B836A831D8281
:100810001C8285E090E00E94970DFC0180E191E050
:100820009183808380913602883028F48F5F809393
:100830003602848301C014828BE090E0938382832C
:10084000F987E8871B861A8681E090E09D878C8770
:10085000DF91CF9108950F931F93CF93DF938C0176
:10086000FC0173836283158214828EE090E00E9403
:10087000970DEC01F80120853185828593854AE04A
:1008800051E0598348838A839B833D872C8743E3C8
:1008900053E363E37FE3488759876A877B8740E0B8
:1008A00050E060E87FEB4C835D836E837F8361E083
:1008B0000E94DA0060E08C850E94DA00F801D5879A
:1008C000C487DF91CF911F910F910895EF92FF920E
:1008D0000F931F93CF93DF93EC017B017B836A839C
:1008E0001D821C8284E090E00E94970D8C018AE1B9
:1008F00091E0F801918380838CE090E09383828380
:1009000061E00E94DA0019870887C8010E945A0333
:100910001D861C861B861A86FF86EE86DF91CF9188
:100920001F910F91FF90EF9008950E947E0F0F93FB
:100930001F93CF93DF93EC0188819981009729F071
:100940002A813B812617370788F48B016F5F7F4F21
:100950000E94B80E009761F0998388831B830A83F5
:100960002C813D81232B11F4FC01108281E001C018
:1009700080E0DF91CF911F910F910895CF93DF9386
:10098000EC0188819981009711F00E942F0E198245
:1009900018821D821C821B821A82DF91CF910895DA
:1009A000EF92FF920F931F93CF93DF93EC017B01A4
:1009B0008A01BA010E949704811104C0CE010E94ED
:1009C000BE0407C01D830C83B701888199810E94F2
:1009D0008C0FCE01DF91CF911F910F91FF90EF907F
:1009E0000895FC01118210821382128215821482F2
:1009F0006115710551F0FB0101900020E9F7319775
:100A0000AF01461B570B0C94D0040895FC01808164
:100A100091810C942F0EDF92EF92FF920F931F9310
:100A2000CF93DF9300D000D000D0CDB7DEB7CE019A
:100A300001967C01DD24D39481E692E00E94750149
:100A4000892B09F460C081E692E00E9453018A304C
:100A5000C1F51A8219821C821B821E821D8260913E
:100A60001A0370911B036115710539F040911E0343
:100A700050911F03C7010E94D00486E090E00E94BD
:100A8000970D8C016EE571E00E94F104E016F1060D
:100A900071F069817A816115710531F04D815E8156
:100AA000C8010E94D00403C0C8010E94BE04109374
:100AB0005F0200935E02C7010E940605D0926002A9
:100AC000BBCF89831A8200911E0310911F030F5F11
:100AD0001F4FB8018AE193E00E949704882309F42C
:100AE000ABCF20911A0330911B0380911E0390918C
:100AF0001F03B701820F931F0E948C0F10931F03D7
:100B000000931E0399CF26960FB6F894DEBF0FBE52
:100B1000CDBFDF91CF911F910F91FF90EF90DF90AC
:100B200008950E94810181110C940B050895EF92A4
:100B3000FF920F931F93CF93DF9300D000D000D08C
:100B4000CDB7DEB77C0168E571E0CE0101960E9469
:100B5000F104F70104811581E080F180E114F104D2
:100B6000D1F101151105B1F08D819E81080F191F7A
:100B7000B801CE0101960E949704882361F1298172
:100B80003A818D819E81B701820F931F0E948C0F45
:100B90001E830D834D815E8169817A8181E692E0B9
:100BA0000E94160142E050E06CE571E081E692E0BF
:100BB0000E941601CE0101960E94060526960FB6E8
:100BC000F894DEBF0FBECDBFDF91CF911F910F9183
:100BD000FF90EF900895CE0101960E94BE04DACFF7
:100BE0008F929F92AF92BF92EF92FF920F931F93BB
:100BF000CF93DF9300D000D000D0CDB7DEB7DC01BB
:100C00001696ED90FC901797F7012081222309F4A6
:100C10003BC18C011A968D919C911B978130910557
:100C200029F168F08230910509F44CC0039709F06E
:100C30002BC1FD011386128661ED71E0B4C020E086
:100C400030E040EF51E4F70160857185828593853E
:100C50000E941C0B87FF18C181E090E0D8011B9611
:100C60009C938E931A976FE571E09DC0F701828186
:100C700093814E9721F580849184A284B38420E0EF
:100C800030E040EF51E4C501B4010E941C0B18167E
:100C90000CF496C020E030E040EA51E4C501B40114
:100CA0000E948C0D18160CF08BC080E590E0D701E7
:100CB00013969C938E93129764EE71E0D8C06EE801
:100CC00071E071C0FD012485358586859785820F89
:100CD000931F9587848720E030E04CE052E4D701F1
:100CE00018966D917D918D919C911B970E948C0D12
:100CF000181624F5F801138612868EE190E0D701CC
:100D000013969C938E93129765ED71E0CE01019638
:100D10000E94F104CE0101960E949705CE01019632
:100D20000E940605F8011586148680859185DC01F0
:100D3000ED91FC910280F381E02D0995F801848505
:100D40009585893893410CF49FC083E090E0D801E9
:100D50001B969C938E931A976DEB71E0CE010196D2
:100D60000E94F104CE0101960E949705CE010196E2
:100D70000E940605D8011696ED91FC9117978EE119
:100D800090E0938382831D961C921E921C97189666
:100D90008D919C911997DC01ED91FC910280F3817A
:100DA000E02D099571C0CE0101960E94F104CE019B
:100DB00001960E949705CE0101960E94060564C027
:100DC00020E030E040EA51E4C501B4010E941C0B70
:100DD000181694F020E030E040E251E4C501B4017F
:100DE0000E948C0D181644F482E890E0F70193837A
:100DF00082836FEF71E03BC020E030E040E251E4DD
:100E0000C501B4010E941C0B18164CF020E030E024
:100E1000A901C501B4010E948C0D87FF1FC082E0AB
:100E200090E0D8011B969C938E931A976BE771E024
:100E3000CE0101960E94F104CE0101960E94970511
:100E4000CE0101960E940605F80180859185DC019E
:100E5000ED91FC910190F081E02DA3CF84EB90E027
:100E6000D70113969C938E9312976AE172E0CE019C
:100E700001960E94F104CE0101960E949705CE01D1
:100E800001960E940605CBCF26960FB6F894DEBFDA
:100E90000FBECDBFDF91CF911F910F91FF90EF90CB
:100EA000BF90AF909F908F9008954F925F926F92F6
:100EB0007F928F929F92AF92BF92CF92DF92EF92EA
:100EC000FF920F931F93CF93DF93EC0160E08A8131
:100ED0000E948D0087E090E00197F1F761E08A8140
:100EE0000E948D008FE090E00197F1F760E08A8129
:100EF0000E948D008C859D859927FC01E656FF4F49
:100F00006491FC01EA57FF4FE491F0E0EE0FFF1F00
:100F1000E859FF4F8591949100E412E42FE030E00E
:100F2000462F0E946609611571058105910549F0FA
:100F3000DC01CB010196A11DB11DBC01CD019F704B
:100F400003C060E070E0CB010E94210B20E030E0A4
:100F50004AE754E40E94E40C20E030E04AE754E41D
:100F60000E94E40C20E030E040E05FE30E94820B4E
:100F700020E030EC4BEA53E40E94820B2B013C0151
:100F8000CC80DD80EE80FF8020E030E040E85FEB49
:100F9000C701B6010E941C0B811105C04C825D8205
:100FA0006E827F8222C088849984AA84BB84A50132
:100FB000940160E070E080E89FE30E94770CA30159
:100FC00092010E94820B2B013C01A5019401C701F3
:100FD000B6010E94820B9B01AC01C301B2010E94C9
:100FE000780C6C837D838E839F836C817D818E8161
:100FF0009F81DF91CF911F910F91FF90EF90DF9034
:10100000CF90BF90AF909F908F907F906F905F90A8
:101010004F9008951F920F920FB60F9211242F93A5
:101020003F938F939F93AF93BF9380915A02909178
:101030005B02A0915C02B0915D023091590223E005
:10104000230F2D3720F40196A11DB11D05C026E800
:10105000230F0296A11DB11D2093590280935A02BD
:1010600090935B02A0935C02B0935D028091550265
:1010700090915602A0915702B09158020196A11D7D
:10108000B11D8093550290935602A0935702B093DE
:101090005802BF91AF919F918F913F912F910F90E7
:1010A0000FBE0F901F9018951F920F920FB60F92C0
:1010B00011242F933F934F935F936F937F938F935D
:1010C0009F93AF93BF93EF93FF9381E692E00E94CB
:1010D0008B01FF91EF91BF91AF919F918F917F9184
:1010E0006F915F914F913F912F910F900FBE0F9095
:1010F0001F9018951F920F920FB60F9211242F93E5
:101100008F939F93EF93FF93E0917102F09172029E
:101110008081E0917702F091780282FD12C0908187
:1011200080917A028F5F8F7320917B02821751F03A
:10113000E0917A02F0E0EF59FD4F958F80937A02AB
:1011400001C08081FF91EF919F918F912F910F901E
:101150000FBE0F901F9018951F920F920FB60F920F
:1011600011248F9381E08093FE028F910F900FBE28
:101170000F901F9018951F920F920FB60F92112487
:101180002F933F934F935F936F937F938F939F938F
:10119000AF93BF93EF93FF93809137028F5F80935C
:1011A0003702809138022091370290E0FC01EE0F67
:1011B000FF1F8E0F9F1FFC01E65CFD4F8181821394
:1011C0000FC08091380290E0FC01EE0FFF1F8E0FE0
:1011D0009F1FFC01E65CFD4F82818093B20065C0D9
:1011E000809138022091370290E0FC01EE0FFF1F42
:1011F0008E0F9F1FFC01E65CFD4F8181821708F076
:1012000054C08091380290E0FC01EE0FFF1F8E0F5A
:101210009F1FFC01E65CFD4F808185FF10C080911F
:10122000380290E0FC01EE0FFF1F8E0F9F1FFC01A4
:10123000E65CFD4F808160E08F710E948D0080919F
:1012400038028F5F80933802109237021092B200FA
:1012500080913802882319F1809138028930F8F49E
:101260008091380290E0FC01EE0FFF1F8E0F9F1F50
:10127000FC01E65CFD4F808185FF17C0809138023C
:1012800090E0FC01EE0FFF1F8E0F9F1FFC01E65C3C
:10129000FD4F808161E08F710E948D0006C08091BA
:1012A0003802893010F010923802FF91EF91BF910F
:1012B000AF919F918F917F916F915F914F913F91EE
:1012C0002F910F900FBE0F901F901895CF92DF9225
:1012D000EF92FF920F931F93E82FF92F05C0015053
:1012E00011092109310961F1908196239417B9F30D
:1012F00005C0015011092109310911F1908196238E
:101300009413F7CFC12CD12CE12CF12C0AC08FEF14
:10131000C81AD80AE80AF80A0C151D052E053F055B
:1013200079F080818623841791F36C2D7D2D8E2D8D
:101330009F2D1F910F91FF90EF90DF90CF90089518
:1013400060E070E080E090E01F910F91FF90EF90DF
:10135000DF90CF900895E1E6F2E01382128288EEEA
:1013600093E0A0E0B0E084839583A683B78382E412
:1013700091E09183808385EC90E09587848784EC6D
:1013800090E09787868780EC90E0918B808B81EC52
:1013900090E0938B828B82EC90E0958B848B86EC33
:1013A00090E0978B868B118E128E138E148E84E5AF
:1013B00091E0909300038093FF021092FE026EE58D
:1013C00071E08AE193E00C94F104789484B5826032
:1013D00084BD84B5816084BD85B5826085BD85B5D9
:1013E000816085BD80916E00816080936E00109257
:1013F00081008091810082608093810080918100D2
:101400008160809381008091800081608093800062
:101410008091B10084608093B1008091B0008160C0
:101420008093B00080917A00846080937A008091EC
:101430007A00826080937A0080917A008160809344
:101440007A0080917A00806880937A001092C100BF
:1014500082E390E09093020380930103F89410924A
:10146000800010928100109285001092840083E326
:1014700093E0909389008093880080918100886038
:1014800080938100809181008560809381008091AC
:101490006F00826080936F00789410920403109222
:1014A0000303E0917102F091720282E08083E09187
:1014B0006D02F0916E021082E0916F02F091700265
:1014C0008FEC808310927902E0917502F0917602A0
:1014D00086E08083E0917302F091740280818061E4
:1014E0008083E0917302F091740280818860808330
:1014F000E0917302F0917402808180688083E091B2
:101500007302F091740280818F7D808360E071E0CE
:101510008AE193E00E94970440E050E06EE571E0BC
:101520008AE193E00E94D00410925F0210925E0262
:10153000109260028DE090E00E94970DEC0181E036
:10154000888319821B821A821C821D821E821F823E
:1015500080E090E0A8ECB1E488879987AA87BB87F0
:101560001C868EE090E00E94970D8C0182E291E053
:10157000F80191838083D783C68388E090E09187C8
:10158000808787E090E09387828762E370E0C801FC
:101590000E942B04B8018FEF92E00E94F9028EE0C6
:1015A00090E00E94970D8C018AE291E0F80191830E
:1015B0008083D783C68364E670E0C8010E94BD03C0
:1015C000B8018FEF92E00E94F90280E190E00E9462
:1015D000970D8C0182E391E0F80191838083D7839A
:1015E000C68362E370E0C8010E946604B8018FEF11
:1015F00092E00E94F9028EE090E00E94970D8C012B
:101600008AE391E0F80191838083D783C68366E9FA
:1016100070E0C8010E940204B8018FEF92E00E94BE
:10162000F9028FEF92E00E94B3020E949105F9CF78
:101630008AE193E00C9406050E945E0B08F481E0B9
:101640000895E89409C097FB3EF4909580957095B5
:1016500061957F4F8F4F9F4F9923A9F0F92F96E9FE
:10166000BB279395F695879577956795B795F11173
:10167000F8CFFAF4BB0F11F460FF1BC06F5F7F4F10
:101680008F4F9F4F16C0882311F096E911C0772322
:1016900021F09EE8872F762F05C0662371F096E82B
:1016A000862F70E060E02AF09A95660F771F881FFA
:1016B000DAF7880F9695879597F90895990F00089E
:1016C000550FAA0BE0E8FEEF16161706E807F90714
:1016D000C0F012161306E407F50798F0621B730BAF
:1016E000840B950B39F40A2661F0232B242B252B30
:1016F00021F408950A2609F4A140A6958FEF811DD3
:10170000811D08950E94950B0C94060C0E94F80B05
:1017100038F00E94FF0B20F0952311F00C94EF0B92
:101720000C94F50B11240C943A0C0E94170C70F3D6
:10173000959FC1F3950F50E0551F629FF001729F76
:10174000BB27F00DB11D639FAA27F00DB11DAA1F85
:10175000649F6627B00DA11D661F829F2227B00DD2
:10176000A11D621F739FB00DA11D621F839FA00D5D
:10177000611D221F749F3327A00D611D231F849FAD
:10178000600D211D822F762F6A2F11249F57504004
:101790009AF0F1F088234AF0EE0FFF1FBB1F661F7F
:1017A000771F881F91505040A9F79E3F510580F048
:1017B0000C94EF0B0C943A0C5F3FE4F3983ED4F397
:1017C000869577956795B795F795E7959F5FC1F7EC
:1017D000FE2B880F911D9695879597F9089597F997
:1017E0009F6780E870E060E008959FEF80EC0895C7
:1017F00000240A94161617061806090608950024F0
:101800000A9412161306140605060895092E039469
:10181000000C11F4882352F0BB0F40F4BF2B11F4DD
:1018200060FF04C06F5F7F4F8F4F9F4F089557FD3C
:101830009058440F551F59F05F3F71F04795880F3E
:1018400097FB991F61F09F3F79F0879508951216D5
:1018500013061406551FF2CF4695F1DF08C0161681
:1018600017061806991FF1CF869571056105089432
:101870000895E894BB2766277727CB0197F9089549
:101880002F923F924F925F926F927F928F929F9290
:10189000AF92BF92CF92DF92EF92FF920F931F937E
:1018A000CF93DF93CDB7DEB7CA1BDB0B0FB6F8942F
:1018B000DEBF0FBECDBF09942A88398848885F846F
:1018C0006E847D848C849B84AA84B984C884DF80E0
:1018D000EE80FD800C811B81AA81B981CE0FD11DC4
:1018E0000FB6F894DEBF0FBECDBFED01089550587E
:1018F000BB27AA270E948F0C0C94060C0E94F80BA1
:1019000038F00E94FF0B20F039F49F3F19F426F4C1
:101910000C94F50B0EF4E095E7FB0C94EF0BE92F1C
:101920000E94170C58F3BA176207730784079507CC
:1019300020F079F4A6F50C94390C0EF4E0950B2EFA
:10194000BA2FA02D0B01B90190010C01CA01A00111
:101950001124FF27591B99F0593F50F4503E68F16C
:101960001A16F040A22F232F342F4427585FF3CFAD
:10197000469537952795A795F0405395C9F77EF47E
:101980001F16BA0B620B730B840BBAF09150A1F0C7
:10199000FF0FBB1F661F771F881FC2F70EC0BA0F4D
:1019A000621F731F841F48F4879577956795B795D5
:1019B000F7959E3F08F0B0CF9395880F08F09927D0
:1019C000EE0F9795879508950E94F80C0C94060CDD
:1019D0000E94FF0B58F00E94F80B40F029F45F3F83
:1019E00029F00C94EF0B51110C943A0C0C94F50B5C
:1019F0000E94170C68F39923B1F3552391F3951BBB
:101A0000550BBB27AA2762177307840738F09F5F1F
:101A10005F4F220F331F441FAA1FA9F335D00E2E8C
:101A20003AF0E0E832D091505040E695001CCAF7F9
:101A30002BD0FE2F29D0660F771F881FBB1F2617BC
:101A400037074807AB07B0E809F0BB0B802DBF0193
:101A5000FF2793585F4F3AF09E3F510578F00C9462
:101A6000EF0B0C943A0C5F3FE4F3983ED4F3869569
:101A700077956795B795F7959F5FC9F7880F911D83
:101A80009695879597F90895E1E0660F771F881F6F
:101A9000BB1F621773078407BA0720F0621B730B22
:101AA000840BBA0BEE1F88F7E09508950E945D0D38
:101AB0006894B1110C943A0C08950E941F0C88F0A0
:101AC0009F5798F0B92F9927B751B0F0E1F0660F02
:101AD000771F881F991F1AF0BA95C9F714C0B13043
:101AE00091F00E94390CB1E008950C94390C672FE5
:101AF000782F8827B85F39F0B93FCCF38695779572
:101B00006795B395D9F73EF490958095709561955A
:101B10007F4F8F4F9F4F08950E945E0B08F48FEF09
:101B20000895EE0FFF1F0590F491E02D09940F9397
:101B30001F93CF93DF938230910510F482E090E001
:101B4000E0912203F091230320E030E0A0E0B0E038
:101B5000309719F14081518102811381481759074B
:101B6000C8F08417950769F4109731F012960C931A
:101B7000129713961C9327C00093220310932303FC
:101B800022C02115310519F04217530718F49A01A4
:101B9000BD01EF01DF01F801DBCF21153105F9F0BF
:101BA000281B390B2430310580F48A819B81611513
:101BB000710521F0FB019383828304C0909323037A
:101BC00080932203FE01329644C0FE01E20FF31F10
:101BD0008193919322503109398328833AC020910F
:101BE000200330912103232B41F4209102013091F5
:101BF00003013093210320932003209100013091B1
:101C000001012115310541F42DB73EB74091040182
:101C100050910501241B350BE0912003F091210325
:101C2000E217F307A0F42E1B3F0B2817390778F0B3
:101C3000AC014E5F5F4F2417350748F04E0F5F1F12
:101C400050932103409320038193919302C0E0E0DD
:101C5000F0E0CF01DF91CF911F910F910895CF93C5
:101C6000DF93009709F481C0FC013297138212823E
:101C7000A0912203B0912303109781F42081318138
:101C8000820F931F209120033091210328173907D9
:101C900051F5F0932103E093200367C0ED0120E0AC
:101CA00030E0CE17DF0740F44A815B819E01411589
:101CB0005105F1F0EA01F5CFD383C2834081518110
:101CC000840F951FC817D90759F488819981840F0B
:101CD000951F0296918380838A819B81938382835F
:101CE0002115310529F4F0932303E09322033DC02D
:101CF000E901FB83EA8349915991C40FD51FEC1781
:101D0000FD0761F480819181840F951F0296E9019E
:101D100099838883828193819B838A83E0E0F0E0CA
:101D200012968D919C911397009719F0FD01DC019B
:101D3000F7CF8D919C9111979D012E5F3F4F820FA0
:101D4000931F20912003309121032817390769F44C
:101D5000309729F4109223031092220302C01382B9
:101D60001282B0932103A0932003DF91CF910895B5
:101D7000A0E0B0E0EEEBFEE00C94440CEC01009728
:101D800021F4CB010E94970DB4C0FC01E60FF71FB0
:101D90009C0122503109E217F30708F4A8C0D901C9
:101DA0000D911C91119706171707B0F0053011051A
:101DB00008F49BC0C80104978617970708F495C0DC
:101DC00002501109061B170B019311936D937C931D
:101DD000CF010E942F0E89C05B01A01AB10A4C01ED
:101DE000800E911EA0912203B0912303612C712CCF
:101DF000E12CF12C109709F446C08D919C9111971C
:101E0000A815B905B1F56C0142E0C40ED11CCA1485
:101E1000DB0478F14C018A189B08640142E0C40E8F
:101E2000D11C1296BC9012971396AC91B5E0CB16CC
:101E3000D10440F0B282A38391828082D9016D9354
:101E40007C9309C00E5F1F4F800F911FF901918392
:101E50008083EB2DFA2FE114F10431F0D7011396B2
:101E6000FC93EE93129741C0F0932303E093220377
:101E70003CC06816790608F43C017D0112960D906D
:101E8000BC91A02DB7CF809120039091210388169B
:101E90009906E1F466167706C8F4809100019091E6
:101EA0000101009741F48DB79EB740910401509114
:101EB0000501841B950BE817F907C8F4F09321037B
:101EC000E0932003F901718360830FC0CB010E946E
:101ED000970D7C01009759F0A801BE010E94830F65
:101EE000CE010E942F0EC70104C0CE0102C080E0C7
:101EF00090E0CDB7DEB7EEE00C94600C81E090E0AE
:101F0000F8940C94930FFB01DC0102C001900D9238
:101F100041505040D8F70895FB01DC0101900D922B
:101F20000020E1F7089510E0C2E6D0E004C0FE0111
:101F30000E94910D2196C336D107C9F7F894FFCFBF
:101F4000000024038000000000005507000000008E
:101F500069022B021C02000000005F035A0300000C
:101F600000002B04A20300000000BD0310030000CA
:101F700000006604F0050000000002046403000095
:101F80000000AD0116014401FA017501530167011A
:101F900000000000F902B3026C6F3A000D0A004124
:101FA00075746F4D6F64655461736B2D3E5374612E
:101FB00074652043686F6F73656E004175746F4D73
:101FC0006F64655461736B2D3E5761697400417590
:101FD000746F4D6F64655461736B2D3E466C6F7703
:101FE000206769C3A0207365747461746F206E6F7D
:101FF0006E20736920736120646F7665004175748B
:102000006F4D6F64655461736B2D3E4572726F72D4
:10201000004175746F4D6F64655461736B2D3E495B
:10202000646C65004175746F4D6F64655461736BCA
:102030002D3E536574464C6F7720504D494E0041FC
:1020400075746F4D6F64655461736B2D3E53657489
:10205000464C6F7720504D4544004175746F4D6F6D
:1020600064655461736B2D3E536574464C6F7720E5
:06207000504D4158000034
:107E0000112484B714BE81FFF0D085E080938100F7
:107E100082E08093C00088E18093C10086E0809377
:107E2000C20080E18093C4008EE0C9D0259A86E02C
:107E300020E33CEF91E0309385002093840096BBD3
:107E4000B09BFECF1D9AA8958150A9F7CC24DD24C4
:107E500088248394B5E0AB2EA1E19A2EF3E0BF2EE7
:107E6000A2D0813461F49FD0082FAFD0023811F036
:107E7000013811F484E001C083E08DD089C08234E0
:107E800011F484E103C0853419F485E0A6D080C0E4
:107E9000853579F488D0E82EFF2485D0082F10E0AE
:107EA000102F00270E291F29000F111F8ED06801E7
:107EB0006FC0863521F484E090D080E0DECF843638
:107EC00009F040C070D06FD0082F6DD080E0C81688
:107ED00080E7D80618F4F601B7BEE895C0E0D1E017
:107EE00062D089930C17E1F7F0E0CF16F0E7DF06D8
:107EF00018F0F601B7BEE89568D007B600FCFDCFD4
:107F0000A601A0E0B1E02C9130E011968C91119780
:107F100090E0982F8827822B932B1296FA010C0160
:107F200087BEE89511244E5F5F4FF1E0A038BF0790
:107F300051F7F601A7BEE89507B600FCFDCF97BE46
:107F4000E89526C08437B1F42ED02DD0F82E2BD052
:107F50003CD0F601EF2C8F010F5F1F4F84911BD097
:107F6000EA94F801C1F70894C11CD11CFA94CF0C13
:107F7000D11C0EC0853739F428D08EE10CD085E9AC
:107F80000AD08FE07ACF813511F488E018D01DD067
:107F900080E101D065CF982F8091C00085FFFCCF94
:107FA0009093C60008958091C00087FFFCCF809118
:107FB000C00084FD01C0A8958091C6000895E0E648
:107FC000F0E098E1908380830895EDDF803219F02E
:107FD00088E0F5DFFFCF84E1DECF1F93182FE3DFCA
:107FE0001150E9F7F2DF1F91089580E0E8DFEE27F6
:047FF000FF270994CA
:027FFE00040479
:0400000300007E007B
:00000001FF
