:100000000C9462000C948A000C948A000C948A0070
:100010000C948A000C948A000C948A000C948A0038
:100020000C948A000C948A000C948A000C94470566
:100030000C948A000C948A000C948A000C948A0018
:100040000C94A5040C948A000C9415050C94EF04F0
:100050000C948A000C948A000C948A000C948A00F8
:100060000C948A000C948A000000000023002600F3
:10007000290000000000240027002A0000000000E2
:10008000250028002B0004040404040404040202D4
:100090000202020203030303030301020408102007
:1000A0004080010204081020010204081020000012
:1000B0000008000201000003040700000000000027
:1000C00000009B0511241FBECFEFD8E0DEBFCDBFDF
:1000D00011E0A0E0B1E0E2EAF2E102C005900D9289
:1000E000A035B107D9F722E0A0E5B1E001C01D922B
:1000F000A631B207E1F710E0C2E6D0E004C02197D4
:10010000FE010E942308C136D107C9F70E94D0051D
:100110000C944F090C940000833081F028F4813056
:1001200099F08230A1F008958730A9F08830B9F0B5
:100130008430D1F4809180008F7D03C08091800055
:100140008F7780938000089584B58F7702C084B53F
:100150008F7D84BD08958091B0008F7703C080911A
:10016000B0008F7D8093B00008951F93CF93DF93ED
:10017000282F30E0F901E255FF4F8491F901E6564E
:10018000FF4FD491F901EA57FF4FC491CC23C1F03E
:10019000162F81110E948C00EC2FF0E0EE0FFF1F54
:1001A000E458FF4FA591B4919FB7F894111104C082
:1001B0008C91D095D82302C0EC91DE2BDC939FBFAD
:1001C000DF91CF911F910895CF93DF9390E0FC01D1
:1001D000E656FF4F2491FC01EA57FF4F8491882394
:1001E00061F190E0880F991FFC01EE58FF4FC59117
:1001F000D491FC01E458FF4FA591B491611109C05D
:100200009FB7F8948881209582238883EC912E23D0
:100210000BC0623061F49FB7F8948881322F30951B
:1002200083238883EC912E2B2C939FBF06C08FB71E
:10023000F894E8812E2B28838FBFDF91CF9108950A
:10024000CF92DF92EF92FF920F931F93CF93DF93A2
:100250006C017A018B01C0E0D0E0CE15DF0581F0A2
:10026000D8016D918D01D601ED91FC910190F08145
:10027000E02DC6010995892B11F02196EECF7E0164
:10028000C701DF91CF911F910F91FF90EF90DF9009
:10029000CF900895089580E090E00895FC01538D7B
:1002A000448D252F30E0842F90E0821B930B541750
:1002B00010F0CF96089501970895FC01918D828DDD
:1002C000981761F0828DDF01A80FB11D5D968C91AA
:1002D000928D9F5F9F73928F90E008958FEF9FEFB5
:1002E0000895FC01918D828D981731F0828DE80F71
:1002F000F11D858D90E008958FEF9FEF0895FC012B
:10030000918D228D892F90E0805C9F4F821B9109F7
:100310008F739927089589E591E00E947F0121E07C
:10032000892B09F420E0822F0895FC01848DDF01E0
:10033000A80FB11DA35ABF4F2C91848D90E0019658
:100340008F739927848FA689B7892C93A089B18947
:100350008C91837080648C93938D848D981306C0E8
:100360000288F389E02D80818F7D80830895EF924C
:10037000FF920F931F93CF93DF93EC0181E0888F5F
:100380009B8D8C8D981305C0E889F989808185FD46
:1003900026C0F62E0B8D10E00F5F1F4F0F73112735
:1003A000E02E8C8DE8120CC00FB607FCFACFE8895E
:1003B000F989808185FFF5CFCE010E949501F1CFAB
:1003C0008B8DFE01E80FF11DE35AFF4FF0829FB7BE
:1003D000F8940B8FEA89FB89808180620AC09FB7FD
:1003E000F894EE89FF896083E889F98980818370B8
:1003F000806480839FBF81E090E0DF91CF911F9167
:100400000F91FF90EF900895CF93DF93EC01888DCB
:100410008823C9F0EA89FB89808185FD05C0A88908
:10042000B9898C9186FD0FC00FB607FCF5CF80818E
:1004300085FFF2CFA889B9898C9185FFEDCFCE01D8
:100440000E949501E7CFDF91CF91089580E090E081
:10045000892B29F00E948B0181110C9400000895D2
:10046000EF92FF920F931F93CF93DF938C018091B4
:10047000F6018823E1F31092F601780186E0E80E98
:10048000F11CC0E0D0E0F80184819581C817D9073C
:1004900034F5F701A191B1917F01F80122813381F7
:1004A00014968D919C911597820F931F15969C938E
:1004B0008E93149712962D913C9113978217930760
:1004C00064F015961C921E921497ED91FC91119771
:1004D0000280F381E02DCD0109952196D4CFDF91E3
:1004E000CF911F910F91FF90EF900895FC0124810F
:1004F0003581293031057CF4F9013396EE0FFF1F69
:10050000E80FF91F718360832F5F3F4FFC01358334
:10051000248381E0089580E00895CF93DF93FC0168
:10052000228133813327F901E255FF4F8491F9018C
:10053000E656FF4FD491F901EA57FF4FC491CC23FF
:1005400079F081110E948C00EC2FF0E0EE0FFF1F7C
:10055000E859FF4FA591B491EC91ED2381E009F4A6
:1005600080E08170DF91CF910895CF93DF93DC011C
:1005700054962C91222309F43EC0EC018A899B8970
:100580008F3FBFEF9B0729F41B8A1A8A8C859D85B4
:100590001EC0FC013696EE0FFF1FEC0FFD1F808181
:1005A0009181DC01ED91FC910280F381E02D0995B0
:1005B0008A899B899C012F5F3F4F3B8B2A8BFC01D3
:1005C0003796EE0FFF1FEC0FFD1F80819181DC013C
:1005D000ED91FC910190F081E02D09958BE39CE970
:1005E0000197F1F78A899B8902972CF01C8A8FEF7B
:1005F0009FEF9B8B8A8BDF91CF91089560E0FC0188
:1006000082810C94B50061E0FC0182810C94B500FC
:10061000CF93DF93EC018A859B85DC01ED91FC9102
:100620000190F081E02D09956C877D878E879F87EB
:10063000DF91CF910895FC01738362831582148248
:1006400008958F929F92AF92BF920F931F93CF9373
:10065000DF93CDB7DEB7A1970FB6F894DEBF0FBE1C
:10066000CDBF19A2423008F44AE08E010F5D1F4F42
:10067000842E912CA12CB12CA50194010E9401087B
:10068000E62FB901CA0101501109EA3014F4E05D06
:1006900001C0E95CD801EC93232B242B252B61F7B7
:1006A0000115110571F0F80101900020E9F731976B
:1006B000AF01401B510BB80189E591E00E94200178
:1006C00002C080E090E0A1960FB6F894DEBF0FBEA6
:1006D000CDBFDF91CF911F910F91BF90AF909F90B1
:1006E0008F9008950F931F93CF93DF93EC017B833B
:1006F0006A831D821C8284E090E00E9429088C019C
:100700008E819F8128E131E0F8013183208382834B
:10071000938360E00E94E40019870887E9E5F1E02F
:10072000A089B18982E08C93A485B5851C92A685A9
:10073000B7858FEC8C93108EA489B58986E08C9355
:10074000A289B3898C9180618C93A289B3898C91A1
:1007500088608C93A289B3898C9180688C9302887D
:10076000F389E02D80818F7D8083DF91CF911F9170
:100770000F910895AF92BF92CF92DF92EF92FF92C6
:100780000F931F93CF93DF938C01FC0173836283DC
:1007900015821482EC0126966C01FCE0CF0ED11C70
:1007A00080E1A82E81E0B82E84E090E00E94290824
:1007B0007C01888199812296F701B182A08282838F
:1007C000938361E00E94E400FD82EC82CC15DD059C
:1007D00059F78FEF9FEFF801938B828BDF91CF91C9
:1007E0001F910F91FF90EF90DF90CF90BF90AF904F
:1007F00008950F931F93CF93DF93EC017B836A835C
:100800001D821C8286E090E00E9429088C012E81C6
:100810003F81888599854AE051E0F8015183408302
:10082000828393833583248361E00E94E40060E047
:10083000F80184810E94E4001B870A87DF91CF9131
:100840001F910F9108950E944A090F931F93CF9310
:10085000DF93EC0160E08A810E94B50087E090E0C0
:100860000197F1F761E08A810E94B5008FE090E086
:100870000197F1F760E08A810E94B5008C819D812B
:100880009927FC01E656FF4F6491FC01EA57FF4FA0
:10089000E491F0E0EE0FFF1FE859FF4F859194912E
:1008A00000E412E42FE030E0462F0E945605611567
:1008B00071058105910549F0DC01CB010196A11D6F
:1008C000B11DBC01CD019F7003C060E070E0CB01A1
:1008D0000E94060720E030E04AE754E40E949406B4
:1008E00020E030E04AE754E40E94940620E030E043
:1008F00040E05FE30E94940720E030EC4BEA53E4D1
:100900000E949407DF91CF911F910F910895CF938B
:10091000DF93EC0188859985DC01ED91FC910190D4
:10092000F081E02D09958A87682F70E080E090E0E3
:100930004AE00E94210342E050E06CE471E089E566
:1009400091E0DF91CF910C9420011F920F920FB68E
:100950000F9211242F933F938F939F93AF93BF9345
:100960008091550190915601A0915701B091580185
:100970003091540123E0230F2D3720F40196A11D5F
:10098000B11D05C026E8230F0296A11DB11D2093BD
:1009900054018093550190935601A0935701B09351
:1009A00058018091500190915101A0915201B09154
:1009B00053010196A11DB11D8093500190935101E7
:1009C000A0935201B0935301BF91AF919F918F912A
:1009D0003F912F910F900FBE0F901F9018951F926F
:1009E0000F920FB60F9211242F933F934F935F9363
:1009F0006F937F938F939F93AF93BF93EF93FF93E7
:100A000089E591E00E949501FF91EF91BF91AF912F
:100A10009F918F917F916F915F914F913F912F9116
:100A20000F900FBE0F901F9018951F920F920FB648
:100A30000F9211242F938F939F93EF93FF93E09145
:100A40006901F0916A018081E0916F01F09170017C
:100A500082FD12C09081809172018F5F8F7320910F
:100A60007301821751F0E0917201F0E0E75AFE4FF6
:100A7000958F8093720101C08081FF91EF919F91CA
:100A80008F912F910F900FBE0F901F9018951F926E
:100A90000F920FB60F9211248F9381E08093F6018D
:100AA0008F910F900FBE0F901F901895CF92DF92ED
:100AB000EF92FF920F931F93E82FF92F05C001507B
:100AC00011092109310961F1908196239417B9F335
:100AD00005C0015011092109310911F190819623B6
:100AE0009413F7CFC12CD12CE12CF12C0AC08FEF3D
:100AF000C81AD80AE80AF80A0C151D052E053F0584
:100B000079F080818623841791F36C2D7D2D8E2DB5
:100B10009F2D1F910F91FF90EF90DF90CF90089540
:100B200060E070E080E090E01F910F91FF90EF9007
:100B3000DF90CF900895E9E5F1E01382128288EE0C
:100B400093E0A0E0B0E084839583A683B78386E337
:100B500091E09183808385EC90E09587848784EC95
:100B600090E09787868780EC90E0918B808B81EC7A
:100B700090E0938B828B82EC90E0958B848B86EC5B
:100B800090E0978B868B118E128E138E148E88E4D4
:100B900091E09093F8018093F7011092F601089587
:100BA000789484B5826084BD84B5816084BD85B548
:100BB000826085BD85B5816085BD80916E00816054
:100BC00080936E00109281008091810082608093FA
:100BD00081008091810081608093810080918000FC
:100BE0008160809380008091B10084608093B10027
:100BF0008091B00081608093B00080917A00846021
:100C000080937A0080917A00826080937A0080914C
:100C10007A00816080937A0080917A008068809366
:100C20007A001092C10082E390E09093FA018093E1
:100C3000F901F894109280001092810010928500C2
:100C40001092840083E393E090938900809388005E
:100C5000809181008860809381008091810085600F
:100C60008093810080916F00826080936F00789400
:100C70001092FC011092FB0185E190E00E9429088E
:100C8000EC018EE191E0998388838BE090E09F8373
:100C90008E838CE090E0998788878DE090E09B8739
:100CA0008A8766E970E0CE010E94BA03BE0187EF31
:100CB00091E00E9476028BE090E00E942908EC010E
:100CC00086E291E09983888386E090E09F838E831B
:100CD00062E370E0CE010E947203BE0187EF91E0F3
:100CE0000E94760280E190E00E942908EC018EE2E9
:100CF00091E09983888388E090E09F838E8387E0EA
:100D000090E09987888764E670E0CE010E94F9033D
:100D1000BE0187EF91E00E94760287EF91E00E948A
:100D200030020E942602F9CF0E94A8060C945A07AE
:100D30000E94530758F00E944C0740F029F45F3F8F
:100D400029F00C94430751110C948E070C94490719
:100D50000E946B0768F39923B1F3552391F3951B18
:100D6000550BBB27AA2762177307840738F09F5FCC
:100D70005F4F220F331F441FAA1FA9F335D00E2E39
:100D80003AF0E0E832D091505040E695001CCAF7A6
:100D90002BD0FE2F29D0660F771F881FBB1F261769
:100DA00037074807AB07B0E809F0BB0B802DBF0140
:100DB000FF2793585F4F3AF09E3F510578F00C940F
:100DC00043070C948E075F3FE4F3983ED4F3869577
:100DD00077956795B795F7959F5FC9F7880F911D30
:100DE0009695879597F90895E1E0660F771F881F1C
:100DF000BB1F621773078407BA0720F0621B730BCF
:100E0000840BBA0BEE1F88F7E0950895E89409C0AB
:100E100097FB3EF490958095709561957F4F8F4F2D
:100E20009F4F9923A9F0F92F96E9BB279395F69543
:100E3000879577956795B795F111F8CFFAF4BB0FC1
:100E400011F460FF1BC06F5F7F4F8F4F9F4F16C025
:100E5000882311F096E911C0772321F09EE8872FAF
:100E6000762F05C0662371F096E8862F70E060E06B
:100E70002AF09A95660F771F881FDAF7880F9695E4
:100E8000879597F9089597F99F6780E870E060E08B
:100E900008959FEF80EC089500240A941616170613
:100EA00018060906089500240A941216130614065B
:100EB00005060895092E0394000C11F4882352F0BE
:100EC000BB0F40F4BF2B11F460FF04C06F5F7F4F76
:100ED0008F4F9F4F089557FD9058440F551F59F05D
:100EE0005F3F71F04795880F97FB991F61F09F3F17
:100EF00079F087950895121613061406551FF2CF40
:100F00004695F1DF08C0161617061806991FF1CF8F
:100F100086957105610508940895E894BB276627B6
:100F20007727CB0197F908950E94A7070C945A07D9
:100F30000E944C0738F00E94530720F0952311F0CF
:100F40000C9443070C94490711240C948E070E94BB
:100F50006B0770F3959FC1F3950F50E0551F629F8B
:100F6000F001729FBB27F00DB11D639FAA27F00D02
:100F7000B11DAA1F649F6627B00DA11D661F829F29
:100F80002227B00DA11D621F739FB00DA11D621F0E
:100F9000839FA00D611D221F749F3327A00D611D2B
:100FA000231F849F600D211D822F762F6A2F11240D
:100FB0009F5750409AF0F1F088234AF0EE0FFF1F40
:100FC000BB1F661F771F881F91505040A9F79E3F97
:100FD000510580F00C9443070C948E075F3FE4F3B7
:100FE000983ED4F3869577956795B795F795E795ED
:100FF0009F5FC1F7FE2B880F911D9695879597F9F6
:101000000895A1E21A2EAA1BBB1BFD010DC0AA1F49
:10101000BB1FEE1FFF1FA217B307E407F50720F061
:10102000A21BB30BE40BF50B661F771F881F991FDC
:101030001A9469F760957095809590959B01AC0125
:10104000BD01CF010895EE0FFF1F0590F491E02D33
:1010500009940F931F93CF93DF938230910510F47F
:1010600082E090E0E0911402F091150220E030E07F
:10107000A0E0B0E0309719F14081518102811381E5
:1010800048175907C8F08417950769F4109731F08D
:1010900012960C93129713961C9327C00093140278
:1010A0001093150222C02115310519F0421753077C
:1010B00018F49A01BD01EF01DF01F801DBCF211522
:1010C0003105F9F0281B390B2430310580F48A8171
:1010D0009B816115710521F0FB019383828304C01C
:1010E0009093150280931402FE01329644C0FE01D3
:1010F000E20FF31F819391932250310939832883A2
:101100003AC02091120230911302232B41F4209116
:1011100002013091030130931302209312022091B7
:101120000001309101012115310541F42DB73EB781
:101130004091040150910501241B350BE0911202EE
:10114000F0911302E217F307A0F42E1B3F0B2817B0
:10115000390778F0AC014E5F5F4F2417350748F030
:101160004E0F5F1F5093130240931202819391938D
:1011700002C0E0E0F0E0CF01DF91CF911F910F912D
:101180000895CF93DF93009709F481C0FC01329753
:1011900013821282A0911402B0911502109781F46B
:1011A00020813181820F931F20911202309113020E
:1011B0002817390751F5F0931302E093120267C024
:1011C000ED0120E030E0CE17DF0740F44A815B817B
:1011D0009E0141155105F1F0EA01F5CFD383C28399
:1011E00040815181840F951FC817D90759F4888110
:1011F0009981840F951F0296918380838A819B81B8
:10120000938382832115310529F4F0931502E0932D
:1012100014023DC0E901FB83EA8349915991C40F4F
:10122000D51FEC17FD0761F480819181840F951F14
:101230000296E90199838883828193819B838A83C3
:10124000E0E0F0E012968D919C911397009719F0D1
:10125000FD01DC01F7CF8D919C9111979D012E5FCF
:101260003F4F820F931F20911202309113022817D3
:10127000390769F4309729F410921502109214027C
:1012800002C013821282B0931302A0931202DF9164
:10129000CF91089581E090E0F8940C944F09F89470
:0212A000FFCF7E
:1012A200000016028000000000002504000000007B
:1012B2000303FE02000000008D0200000000BA03DA
:1012C200B502000000007203870400000000F90369
:1012D200080300000000B70120014E0104027F0153
:1012E2005D01710100000000760230020D0A00006B
:107E0000112484B714BE81FFF0D085E080938100F7
:107E100082E08093C00088E18093C10086E0809377
:107E2000C20080E18093C4008EE0C9D0259A86E02C
:107E300020E33CEF91E0309385002093840096BBD3
:107E4000B09BFECF1D9AA8958150A9F7CC24DD24C4
:107E500088248394B5E0AB2EA1E19A2EF3E0BF2EE7
:107E6000A2D0813461F49FD0082FAFD0023811F036
:107E7000013811F484E001C083E08DD089C08234E0
:107E800011F484E103C0853419F485E0A6D080C0E4
:107E9000853579F488D0E82EFF2485D0082F10E0AE
:107EA000102F00270E291F29000F111F8ED06801E7
:107EB0006FC0863521F484E090D080E0DECF843638
:107EC00009F040C070D06FD0082F6DD080E0C81688
:107ED00080E7D80618F4F601B7BEE895C0E0D1E017
:107EE00062D089930C17E1F7F0E0CF16F0E7DF06D8
:107EF00018F0F601B7BEE89568D007B600FCFDCFD4
:107F0000A601A0E0B1E02C9130E011968C91119780
:107F100090E0982F8827822B932B1296FA010C0160
:107F200087BEE89511244E5F5F4FF1E0A038BF0790
:107F300051F7F601A7BEE89507B600FCFDCF97BE46
:107F4000E89526C08437B1F42ED02DD0F82E2BD052
:107F50003CD0F601EF2C8F010F5F1F4F84911BD097
:107F6000EA94F801C1F70894C11CD11CFA94CF0C13
:107F7000D11C0EC0853739F428D08EE10CD085E9AC
:107F80000AD08FE07ACF813511F488E018D01DD067
:107F900080E101D065CF982F8091C00085FFFCCF94
:107FA0009093C60008958091C00087FFFCCF809118
:107FB000C00084FD01C0A8958091C6000895E0E648
:107FC000F0E098E1908380830895EDDF803219F02E
:107FD00088E0F5DFFFCF84E1DECF1F93182FE3DFCA
:107FE0001150E9F7F2DF1F91089580E0E8DFEE27F6
:047FF000FF270994CA
:027FFE00040479
:0400000300007E007B
:00000001FF
