:100000000C9481000C94A9000C94A9000C94A900F4
:100010000C94A9000C94A9000C94A9000C94A900BC
:100020000C94A9000C9433090C94A9000C94240995
:100030000C94A9000C94A9000C94A9000C94A9009C
:100040000C9482080C94A9000C94F2080C94CC082F
:100050000C94A9000C94A9000C94A9000C94A9007C
:100060000C94A9000C94A9004E414E494E49545994
:10007000494E46CDCCCC3D0AD7233C17B7D1387773
:10008000CC2B329595E6241FB14F0A000020410089
:1000900000C84200401C4620BCBE4CCA1B0E5AAED3
:1000A000C59D740000000023002600290000000008
:1000B00000240027002A0000000000250028002B53
:1000C0000004040404040404040202020202020301
:1000D000030303030301020408102040800102040B
:1000E000081020010204081020000000080002018E
:1000F0000000030407000000000000000000230AC5
:10010000A70B11241FBECFEFD8E0DEBFCDBF23E089
:10011000AEE3B2E001C01D92AE32B207E1F712E0E9
:10012000A0E0B1E0EEE7F3E202C005900D92AE333D
:10013000B107D9F710E0C0E8D0E004C02197FE0174
:100140000E94B00FCF37D107C9F70E945D0A0C9407
:10015000B2110C94000090E0FC01E751FF4F249194
:10016000FC01EB52FF4F3491FC01EF53FF4FE49140
:10017000EE2309F43CC0222339F1233091F038F406
:100180002130A9F0223001F584B58F7D12C02730CF
:1001900091F02830A1F02430B9F4809180008F7D57
:1001A00003C0809180008F77809380000DC084B55C
:1001B0008F7784BD09C08091B0008F7703C0809194
:1001C000B0008F7D8093B000F0E0EE0FFF1FE95488
:1001D000FF4FA591B4919FB7F894611104C08C9121
:1001E0003095382302C0EC913E2B3C939FBF08957D
:1001F000CF93DF9390E0FC01EB52FF4F2491FC0181
:10020000EF53FF4F8491882361F190E0880F991F8D
:10021000FC01E355FF4FC591D491FC01E954FF4F18
:10022000A591B491611109C09FB7F8948881209578
:1002300082238883EC912E230BC0623061F49FB738
:10024000F8948881322F309583238883EC912E2B6C
:100250002C939FBF06C08FB7F894E8812E2B28837C
:100260008FBFDF91CF910895FC0173836283158264
:1002700014820895CF92DF92EF92FF920F931F9313
:10028000CF93DF936C017A018B01C0E0D0E0CE15F3
:10029000DF0581F0D8016D918D01D601ED91FC91C2
:1002A0000190F081E02DC6010995892B11F021966E
:1002B000EECF7E01C701DF91CF911F910F91FF908B
:1002C000EF90DF90CF900895089580E090E008953A
:1002D000FC01538D448D252F30E0842F90E0821B4C
:1002E000930B541710F0CF96089501970895FC01D1
:1002F000918D828D981761F0828DDF01A80FB11D5D
:100300005D968C91928D9F5F9F73928F90E0089580
:100310008FEF9FEF0895FC01918D828D981731F03A
:10032000828DE80FF11D858D90E008958FEF9FEF8E
:100330000895FC01918D228D892F90E0805C9F4F64
:10034000821B91098F739927089589E692E00E9494
:10035000990121E0892B09F420E0822F0895FC0106
:10036000848DDF01A80FB11DA35ABF4F2C91848D3E
:1003700090E001968F739927848FA689B7892C9373
:10038000A089B1898C91837080648C93938D848DC6
:10039000981306C00288F389E02D80818F7D8083C9
:1003A0000895EF92FF920F931F93CF93DF93EC0189
:1003B00081E0888F9B8D8C8D981305C0E889F98921
:1003C000808185FD26C0F62E0B8D10E00F5F1F4F3C
:1003D0000F731127E02E8C8DE8120CC00FB607FCAE
:1003E000FACFE889F989808185FFF5CFCE010E9497
:1003F000AF01F1CF8B8DFE01E80FF11DE35AFF4FE6
:10040000F0829FB7F8940B8FEA89FB898081806224
:100410000AC09FB7F894EE89FF896083E889F9895B
:1004200080818370806480839FBF81E090E0DF9152
:10043000CF911F910F91FF90EF900895CF93DF938D
:10044000EC01888D8823C9F0EA89FB89808185FDCC
:1004500005C0A889B9898C9186FD0FC00FB607FC2D
:10046000F5CF808185FFF2CFA889B9898C9185FF6E
:10047000EDCFCE010E94AF01E7CFDF91CF9108957C
:10048000DC011496EC91F0E0CF01880F991FE80F82
:10049000F91FEE5BFD4F80818F7D80830895CF93A0
:1004A000FC01C4818FEF8C0F8830A8F5072E000C5B
:1004B000880B990B0E94250D25E535E545E051E4B3
:1004C0000E94840D20E030E84BE354E40E94970E34
:1004D0000E94750F6E3EF2E07F073CF06B3C28E017
:1004E00072072CF06AEC78E002C06EEE72E06850A1
:1004F0007109EC2FF0E0CB01880F892F881F990B31
:100500009F01220F331FE20FF31FEE5BFD4F81832C
:10051000660F60956283CF9108950F931F93CF93D9
:10052000DC011296CC9120914102211122C0E2E41B
:10053000F2E02AE532E05BE047E5548345833396F9
:100540002E173F07D1F72EE320934302109240026B
:1005500010923F02109270001092B00022E020939F
:10056000B1001092B20021E027BB209370002093CD
:100570004102FC0124812223B1F08C0161E08C2F27
:100580000E94F800D8011496EC91F0E0CF01880F9A
:10059000991FE80FF91FEE5BFD4FCF718081807EC0
:1005A000C82BC062C083CF911F910F910895EF9225
:1005B000FF920F931F93CF93DF938C0180910603DB
:1005C0008823E1F310920603780186E0E80EF11C1F
:1005D000C0E0D0E0F80184819581C817D90734F5CF
:1005E000F701A191B1917F01F80122813381149625
:1005F0008D919C911597820F931F15969C938E93C6
:10060000149712962D913C9113978217930764F0DB
:1006100015961C921E921497ED91FC9111970280F1
:10062000F381E02DCD0109952196D4CFDF91CF91B3
:100630001F910F91FF90EF900895FC012481358167
:10064000293031057CF4F9013396EE0FFF1FE80FD6
:10065000F91F718360832F5F3F4FFC013583248333
:1006600081E0089580E008950F931F93CF93DF9367
:100670008C01DC011696CD91DC9117972AE939E9B6
:1006800049E95EE36C817D818E819F810E941E0D10
:10069000F801A085B18518161CF08981811117C059
:1006A00081E088831982ED91FC9111970280F3819A
:1006B000E02DCD010995D8011A968D919C911B973B
:1006C000DC01ED91FC910190F081E02D12C01882C7
:1006D000ED91FC9111970190F081E02DCD010995EC
:1006E000F80182859385DC01ED91FC910280F38114
:1006F000E02DDF91CF911F910F91099460E0FC01F3
:1007000082810C94AB0061E0FC0182810C94AB000F
:100710000F931F93CF93DF93EC0188859985DC01BC
:10072000ED91FC910190F081E02D099500E010E041
:10073000EE81FF8122813381888599850217130715
:10074000A4F46A857B85DC01ED91FC910280F38144
:10075000E02D09952A853B858C859D85820F931F09
:100760009B878A870F5F1F4FE3CFDC01ED91FC91E0
:100770000480F581E02DDF91CF911F910F910994B5
:10078000CF93DF93EC018C859D85DC01ED91FC918D
:100790000190F081E02D0995EE81FF8164837583DE
:1007A00086839783DF91CF910895FC0173836283E1
:1007B0001582148208950F931F93CF93DF938C01BA
:1007C000FC0173836283158214828EE090E00E94A4
:1007D000B60FEC01F80120853185828593854AE0CA
:1007E00051E0598348838A839B833D872C8743E369
:1007F00053E363E37FE3488759876A877B8740E059
:1008000050E060E87FEB4C835D836E837F8361E023
:100810000E94F80060E08C850E94F800F801D587FE
:10082000C487DF91CF911F910F910895EF92FF92AE
:100830000F931F93CF93DF93EC017B836A831D8219
:100840001C827D876C8784E090E00E94B60F8C014B
:100850008AE1E82E81E0F82ED8011196FC92EE9202
:100860008AE090E013969C938E93129761E00E9429
:10087000F8001B870A8784E090E00E94B60F8C0185
:10088000FC01F182E0828DE090E09383828361E05D
:100890000E94F800198708878A859B85DC01ED9105
:1008A000FC910190F081E02DDF91CF911F910F918C
:1008B000FF90EF900994CF93DF93EC017B836A83E1
:1008C0001D821C8285E090E00E94B60FFC0180E151
:1008D00091E09183808380913E02883028F48F5F7D
:1008E00080933E02848301C014828BE090E0938366
:1008F0008283F987E8871B861A8681E090E09D87CE
:100900008C87DF91CF910895EF92FF920F931F9301
:10091000CF93DF93EC017B017B836A831D821C8272
:1009200084E090E00E94B60F8C018AE191E0F8012A
:10093000918380838CE090E09383828361E00E94C6
:10094000F80019870887C8010E947E031D861C864F
:100950001B861A86FF86EE86DF91CF911F910F913D
:10096000FF90EF9008950E949D110F931F93CF93D6
:10097000DF93EC0188819981009729F02A813B81DE
:100980002617370788F48B016F5F7F4F0E94D710BF
:10099000009761F0998388831B830A832C813D81B2
:1009A000232B11F4FC01108281E001C080E0DF9173
:1009B000CF911F910F910895CF93DF93EC01888120
:1009C0009981009711F00E944E10198218821D82A1
:1009D0001C821B821A82DF91CF910895EF92FF92C1
:1009E0000F931F93CF93DF93EC017B018A01BA0130
:1009F0000E94B504811104C0CE010E94DC0407C02E
:100A00001D830C83B701888199810E94AB11CE01AF
:100A1000DF91CF911F910F91FF90EF900895CF93A9
:100A2000DF93EC01FB018617970761F0608171810C
:100A30006115710529F0448155810E94EE0402C0C0
:100A40000E94DC04CE01DF91CF910895FC01118258
:100A5000108213821282158214826115710551F081
:100A6000FB0101900020E9F73197AF01461B570BBE
:100A70000C94EE040895FC01808191810C944E1039
:100A8000FF920F931F93CF93DF9300D000D000D03D
:100A9000CDB7DEB7FF24F39489E692E00E94990176
:100AA000892B09F450C089E692E00E9477018A30D0
:100AB00031F51A8219821C821B821E821D8262E21B
:100AC00073E0CE0101960E940F0586E090E00E943F
:100AD000B60F8C0166E671E00E942605BE016F5FCD
:100AE0007F4FC8010E940F051093670200936602B2
:100AF000CE0101960E943B05F0926802CDCF89831A
:100B00001A8200912603109127030F5F1F4FB8012F
:100B100082E293E00E94B504882309F4BDCF2091BE
:100B20002203309123038091260390912703BE0175
:100B30006F5F7F4F820F931F0E94AB1110932703AB
:100B400000932603A9CF26960FB6F894DEBF0FBEFA
:100B5000CDBFDF91CF911F910F91FF9008950E941B
:100B6000A50181110C9440050895EF92FF920F9317
:100B70001F93CF93DF9300D000D000D0CDB7DEB766
:100B80007C0160E671E0CE0101960E942605F70126
:100B900004811581E080F180E114F104D1F10115A7
:100BA0001105B1F08D819E81080F191FB801CE018A
:100BB00001960E94B504882361F129813A818D81D3
:100BC0009E81B701820F931F0E94AB111E830D837C
:100BD0004D815E8169817A8189E692E00E943A01C5
:100BE00042E050E064E671E089E692E00E943A015A
:100BF000CE0101960E943B0526960FB6F894DEBF03
:100C00000FBECDBFDF91CF911F910F91FF90EF905D
:100C10000895CE0101960E94DC04DACF8F929F9254
:100C2000AF92BF92EF92FF920F931F93CF93DF93F8
:100C300000D000D000D0CDB7DEB7DC011696ED9025
:100C4000FC901797F7012081222309F43BC18C0106
:100C50001A968D919C911B978130910529F168F02E
:100C60008230910509F44CC0039709F02BC1FD01B6
:100C70001386128669ED71E0B4C020E030E040EFE9
:100C800051E4F70160857185828593850E941E0D70
:100C900087FF18C181E090E0D8011B969C938E934A
:100CA0001A9767E671E09DC0F701828193814E97A4
:100CB00021F580849184A284B38420E030E040EF69
:100CC00051E4C501B4010E941E0D18160CF496C023
:100CD00020E030E040EA51E4C501B4010E94AB0FCE
:100CE00018160CF08BC080E590E0D70113969C930A
:100CF0008E9312976CEE71E0D8C066E971E071C016
:100D0000FD012485358586859785820F931F9587FC
:100D1000848720E030E04CE052E4D70118966D91D2
:100D20007D918D919C911B970E94AB0F181624F515
:100D3000F801138612868EE190E0D70113969C93FA
:100D40008E9312976DED71E0CE0101960E942605FB
:100D5000CE0101960E94B505CE0101960E943B0589
:100D6000F8011586148680859185DC01ED91FC9152
:100D70000280F381E02D0995F801848595858938F5
:100D800093410CF49FC083E090E0D8011B969C93A4
:100D90008E931A9765EC71E0CE0101960E942605AC
:100DA000CE0101960E94B505CE0101960E943B0539
:100DB000D8011696ED91FC9117978EE190E0938300
:100DC00082831D961C921E921C9718968D919C9161
:100DD0001997DC01ED91FC910280F381E02D0995DA
:100DE00071C0CE0101960E942605CE0101960E9497
:100DF000B505CE0101960E943B0564C020E030E0BD
:100E000040EA51E4C501B4010E941E0D181694F089
:100E100020E030E040E251E4C501B4010E94AB0F94
:100E2000181644F482E890E0F7019383828367E028
:100E300072E03BC020E030E040E251E4C501B40183
:100E40000E941E0D18164CF020E030E0A901C501EB
:100E5000B4010E94AB0F87FF1FC082E090E0D80171
:100E60001B969C938E931A9763E871E0CE010196CE
:100E70000E942605CE0101960E94B505CE0101967D
:100E80000E943B05F80180859185DC01ED91FC9184
:100E90000190F081E02DA3CF84EB90E0D701139671
:100EA0009C938E93129762E272E0CE0101960E94AB
:100EB0002605CE0101960E94B505CE0101960E943D
:100EC0003B05CBCF26960FB6F894DEBF0FBECDBF45
:100ED000DF91CF911F910F91FF90EF90BF90AF9056
:100EE0009F908F9008954F925F926F927F928F9212
:100EF0009F92AF92BF92CF92DF92EF92FF920F93A9
:100F00001F93CF93DF93EC0160E08A810E94AB00D6
:100F100087E090E00197F1F761E08A810E94AB00E1
:100F20008FE090E00197F1F760E08A810E94AB00CA
:100F30008C859D859927FC01EB52FF4F6491FC0144
:100F4000EF53FF4FE491F0E0EE0FFF1FED55FF4F21
:100F50008591949100E412E42FE030E0462F0E9446
:100F6000DE09611571058105910549F0DC01CB01B0
:100F70000196A11DB11DBC01CD019F7003C060E0B1
:100F800070E0CB010E94230D20E030E04AE754E4FA
:100F90000E94030F20E030E04AE754E40E94030F70
:100FA00020E030E040E05FE30E94840D20E030EC80
:100FB0004BEA53E40E94840D2B013C01CC80DD8080
:100FC000EE80FF8020E030E040E85FEBC701B60133
:100FD0000E941E0D811105C04C825D826E827F824F
:100FE00022C088849984AA84BB84A501940160E00E
:100FF00070E080E89FE30E94960EA30192010E9498
:10100000840D2B013C01A5019401C701B6010E948A
:10101000840D9B01AC01C301B2010E94970E6C8349
:101020007D838E839F836C817D818E819F81DF9103
:10103000CF911F910F91FF90EF90DF90CF90BF90D5
:10104000AF909F908F907F906F905F904F9008959A
:10105000EF92FF920F931F93CF93DF9300D000D0B6
:1010600000D0CDB7DEB7209168022223F1F17C01D8
:101070000091660210916702109268021092670256
:101080001092660240E050E066E671E082E293E092
:101090000E94EE041A8219821C821B821E821D820B
:1010A000B801CE0101960E940F0589819A810097AF
:1010B00019F00E94AB0B03C060E070E0CB01D701D8
:1010C0001696ED91FC9117976087718782879387B9
:1010D000CE0101960E943B050115110531F0C801B2
:1010E0000E943B05C8010E944E1026960FB6F89448
:1010F000DEBF0FBECDBFDF91CF911F910F91FF904B
:10110000EF9008951F920F920FB60F9211242F9314
:101110003F938F939F93AF93BF938091620290917F
:101120006302A0916402B09165023091610223E0F4
:10113000230F2D3720F40196A11DB11D05C026E80F
:10114000230F0296A11DB11D2093610280936202BC
:1011500090936302A0936402B093650280915D0254
:1011600090915E02A0915F02B09160020196A11D74
:10117000B11D80935D0290935E02A0935F02B093D5
:101180006002BF91AF919F918F913F912F910F90EE
:101190000FBE0F901F9018951F920F920FB60F92CF
:1011A00011242F933F934F935F936F937F938F936C
:1011B0009F93AF93BF93EF93FF9389E692E00E94D2
:1011C000AF01FF91EF91BF91AF919F918F917F916F
:1011D0006F915F914F913F912F910F900FBE0F90A4
:1011E0001F9018951F920F920FB60F9211242F93F4
:1011F0008F939F93EF93FF93E0917902F0917A029E
:101200008081E0917F02F091800282FD12C0908186
:10121000809182028F5F8F7320918302821751F039
:10122000E0918202F0E0E759FD4F958F80938202B2
:1012300001C08081FF91EF919F918F912F910F902D
:101240000FBE0F901F9018951F920F920FB60F921E
:1012500011248F9381E0809306038F910F900FBE2E
:101260000F901F9018951F920F920FB60F92112496
:101270002F933F934F935F936F937F938F939F939E
:10128000AF93BF93EF93FF9380913F028F5F809363
:101290003F028091400220913F0290E0FC01EE0F5E
:1012A000FF1F8E0F9F1FFC01EE5BFD4F818182139C
:1012B0000FC08091400290E0FC01EE0FFF1F8E0FE7
:1012C0009F1FFC01EE5BFD4F82818093B20065C0E1
:1012D0008091400220913F0290E0FC01EE0FFF1F41
:1012E0008E0F9F1FFC01EE5BFD4F8181821708F07E
:1012F00054C08091400290E0FC01EE0FFF1F8E0F62
:101300009F1FFC01EE5BFD4F808185FF10C0809127
:10131000400290E0FC01EE0FFF1F8E0F9F1FFC01AB
:10132000EE5BFD4F808160E08F710E94AB00809189
:1013300040028F5F8093400210923F021092B200F1
:1013400080914002882319F1809140028930F8F49D
:101350008091400290E0FC01EE0FFF1F8E0F9F1F57
:10136000FC01EE5BFD4F808185FF17C0809140023C
:1013700090E0FC01EE0FFF1F8E0F9F1FFC01EE5B44
:10138000FD4F808161E08F710E94AB0006C08091AB
:101390004002893010F010924002FF91EF91BF910E
:1013A000AF919F918F917F916F915F914F913F91FD
:1013B0002F910F900FBE0F901F901895CF92DF9234
:1013C000EF92FF920F931F93E82FF92F05C0015062
:1013D00011092109310961F1908196239417B9F31C
:1013E00005C0015011092109310911F1908196239D
:1013F0009413F7CFC12CD12CE12CF12C0AC08FEF24
:10140000C81AD80AE80AF80A0C151D052E053F056A
:1014100079F080818623841791F36C2D7D2D8E2D9C
:101420009F2D1F910F91FF90EF90DF90CF90089527
:1014300060E070E080E090E01F910F91FF90EF90EE
:10144000DF90CF900895E9E6F2E01382128288EEF1
:1014500093E0A0E0B0E084839583A683B7838AE419
:1014600091E09183808385EC90E09587848784EC7C
:1014700090E09787868780EC90E0918B808B81EC61
:1014800090E0938B828B82EC90E0958B848B86EC42
:1014900090E0978B868B118E128E138E148E8CE5B6
:1014A00091E090930803809307031092060366E689
:1014B00071E082E293E00C942605789484B5826012
:1014C00084BD84B5816084BD85B5826085BD85B5E8
:1014D000816085BD80916E00816080936E00109266
:1014E00081008091810082608093810080918100E1
:1014F0008160809381008091800081608093800072
:101500008091B10084608093B1008091B0008160CF
:101510008093B00080917A00846080937A008091FB
:101520007A00826080937A0080917A008160809353
:101530007A0080917A00806880937A001092C100CE
:1015400082E3E82EF12CF0920A03E0920903F8946A
:1015500010928000109281001092850010928400F9
:1015600083E393E0909389008093880080918100C9
:1015700088608093810080918100856080938100E4
:1015800080916F00826080936F00789410920C03BA
:1015900010920B03E0917902F0917A0282E080834D
:1015A000E0917502F09176021082E0917702F0915D
:1015B00078028FEC808310928102E0917D02F0919D
:1015C0007E0286E08083E0917B02F0917C02808144
:1015D00080618083E0917B02F0917C028081886051
:1015E0008083E0917B02F0917C028081806880831F
:1015F000E0917B02F0917C0280818F7D808360E0AE
:1016000071E082E293E00E94B50440E050E066E6BB
:1016100071E082E293E00E94EE0410926702109261
:101620006602109268028DE090E00E94B60FEC0115
:1016300081E0888319828EE190E09B838A831C82FB
:101640001D821E821F8280E090E0A8ECB1E48887B2
:101650009987AA87BB871C868EE090E00E94B60F10
:101660008C0182E291E0F80191838083D783C68365
:1016700088E090E09187808787E090E09387828779
:1016800062E370E0C8010E94DB03B80187E093E0E9
:101690000E941D038EE090E00E94B60F8C018AE24A
:1016A00091E0F80191838083D783C68364E670E07C
:1016B000C8010E941604B80187E093E00E941D0350
:1016C00080E190E00E94B60F8C0182E391E0F80186
:1016D00091838083D783C68362E370E0C8010E9450
:1016E0008404B80187E093E00E941D038EE090E03F
:1016F0000E94B60F8C018AE391E0F8019183808308
:10170000D783C68366E970E0C8010E945B04B80114
:1017100087E093E00E941D0388E090E00E94B60FEE
:10172000FC0182E491E091838083D783C683F382B6
:10173000E28215821482BF0187E093E00E941D03BC
:1017400087E093E00E94D7020E94AF05F9CF82E2C2
:1017500093E00C943B05662777270C94AF0BA0E031
:10176000B0E0E5EBFBE00C94560EEC016B0161156B
:10177000710519F0FB01918380837E01FFEFEF1A61
:10178000FF0A0881802F90E00E94FD0C892B11F048
:10179000E701F3CF0D3239F47E0182E0E80EF11C4F
:1017A000098111E008C00B3229F47E0192E0E90EB4
:1017B000F11C098110E0E701219743E050E060E768
:1017C00070E0CE010E94060D892BC1F4239645E0FE
:1017D00050E06BE670E0CE010E94060D892B09F403
:1017E0002596C114D10419F0F601D183C0831111DB
:1017F000F6C060E070E080E89FE7FAC043E050E0A8
:1018000068E670E0CE010E94060D892B59F4C114E0
:10181000D10409F4E9C0F2E0EF0EF11CF601F18207
:10182000E082E2C020E030E0A901C0E0D0E0F701B2
:1018300080EDA82EA00E89E08A1530F1912F9260DC
:10184000B92E812F887012FF04C0811124C0219607
:1018500022C081112197A5E0B0E00E94450EDC0175
:10186000CB01880F991FAA1FBB1F9C01AD012A0D38
:10187000311D411D511D283989E93807480789E183
:10188000580748F0166006C09EEFA9120AC013FD63
:1018900040C01860B12E8FEFE81AF80A00811B2DA6
:1018A000C6CF802F8F7D8534A1F580818D3211F4D4
:1018B000106106C08B3221F0319661E070E004C007
:1018C0008181329662E070E080538A3018F0E61B26
:1018D000F70B1FC060E070E060389CE079075CF4B3
:1018E000DB01AA0FBB1FAA0FBB1F6A0F7B1F660F6E
:1018F000771F680F711D3196DF0111978C9180530E
:101900008A3050F314FF03C0719561957109C60FB9
:10191000D71F11FF08C0C114D10429F0CF010197CE
:10192000F60191838083CA01B9010E94230D212F02
:101930002370233019F04B015C0106C04B015C01A0
:10194000B7FAB094B7F8B09420E030E0A901C5012F
:10195000B4010E941E0D882309F43EC0D7FF06C0C3
:10196000D195C195D10907E810E002C00FE910E058
:101970006801F8E1CF1AD10890E2E92EF12CCE15DA
:10198000DF0574F0F8012591359145915491C50119
:10199000B4010E94840D4B015C01CE19DF09EFCF29
:1019A00004501109F594E7940C151D0541F78A2D93
:1019B000880F8B2D881F8F3F49F020E030E0A90170
:1019C000C501B4010E941E0D811106C082E290E0A3
:1019D0009093290380932803C501B40109C060E0F6
:1019E00070E080E89FEF04C060E070E080EC9FE76B
:1019F000CDB7DEB7ECE00C94720E91110C94F10DA2
:101A0000803219F089508550C8F70895FB01DC0138
:101A10004150504088F08D9181341CF08B350CF48E
:101A2000805E659161341CF06B350CF4605E861B42
:101A3000611171F3990B0895881BFCCF0E94600D12
:101A400008F481E00895E89409C097FB3EF490956E
:101A50008095709561957F4F8F4F9F4F9923A9F087
:101A6000F92F96E9BB279395F69587957795679516
:101A7000B795F111F8CFFAF4BB0F11F460FF1BC05A
:101A80006F5F7F4F8F4F9F4F16C0882311F096E9ED
:101A900011C0772321F09EE8872F762F05C066239B
:101AA00071F096E8862F70E060E02AF09A95660F54
:101AB000771F881FDAF7880F9695879597F908950D
:101AC000990F0008550FAA0BE0E8FEEF161617064F
:101AD000E807F907C0F012161306E407F50798F0B7
:101AE000621B730B840B950B39F40A2661F0232BD0
:101AF000242B252B21F408950A2609F4A140A6954C
:101B00008FEF811D811D08950E94970D0C940B0E7F
:101B10000E94FD0D38F00E94040E20F0952311F074
:101B20000C94F40D0C94FA0D11240C943F0E0E94A9
:101B30001C0E70F3959FC1F3950F50E0551F629FE7
:101B4000F001729FBB27F00DB11D639FAA27F00D16
:101B5000B11DAA1F649F6627B00DA11D661F829F3D
:101B60002227B00DA11D621F739FB00DA11D621F22
:101B7000839FA00D611D221F749F3327A00D611D3F
:101B8000231F849F600D211D822F762F6A2F112421
:101B90009F5750409AF0F1F088234AF0EE0FFF1F54
:101BA000BB1F661F771F881F91505040A9F79E3FAB
:101BB000510580F00C94F40D0C943F0E5F3FE4F35C
:101BC000983ED4F3869577956795B795F795E79501
:101BD0009F5FC1F7FE2B880F911D9695879597F90A
:101BE000089599278827089597F99F6780E870E0FE
:101BF00060E008959FEF80EC089500240A94161683
:101C0000170618060906089500240A9412161306EA
:101C1000140605060895092E0394000C11F4882378
:101C200052F0BB0F40F4BF2B11F460FF04C06F5F94
:101C30007F4F8F4F9F4F089557FD9058440F551F6A
:101C400059F05F3F71F04795880F97FB991F61F03E
:101C50009F3F79F087950895121613061406551FB5
:101C6000F2CF4695F1DF08C0161617061806991F21
:101C7000F1CF86957105610508940895E894BB2716
:101C800066277727CB0197F908950E94870EA59FB5
:101C9000900DB49F900DA49F800D911D1124089567
:101CA0002F923F924F925F926F927F928F929F926C
:101CB000AF92BF92CF92DF92EF92FF920F931F935A
:101CC000CF93DF93CDB7DEB7CA1BDB0B0FB6F8940B
:101CD000DEBF0FBECDBF09942A88398848885F844B
:101CE0006E847D848C849B84AA84B984C884DF80BC
:101CF000EE80FD800C811B81AA81B981CE0FD11DA0
:101D00000FB6F894DEBF0FBECDBFED010895A29FC0
:101D1000B001B39FC001A39F700D811D1124911DBF
:101D2000B29F700D811D1124911D08955058BB273D
:101D3000AA270E94AE0E0C940B0E0E94FD0D38F0E7
:101D40000E94040E20F039F49F3F19F426F40C94FD
:101D5000FA0D0EF4E095E7FB0C94F40DE92F0E94C8
:101D60001C0E58F3BA17620773078407950720F013
:101D700079F4A6F50C943E0E0EF4E0950B2EBA2FD6
:101D8000A02D0B01B90190010C01CA01A001112481
:101D9000FF27591B99F0593F50F4503E68F11A162D
:101DA000F040A22F232F342F4427585FF3CF4695BE
:101DB00037952795A795F0405395C9F77EF41F16E0
:101DC000BA0B620B730B840BBAF09150A1F0FF0FAA
:101DD000BB1F661F771F881FC2F70EC0BA0F621F96
:101DE000731F841F48F4879577956795B795F79586
:101DF0009E3F08F0B0CF9395880F08F09927EE0F1B
:101E00009795879508950E94170F0C940B0E0E94CA
:101E1000040E58F00E94FD0D40F029F45F3F29F0B8
:101E20000C94F40D51110C943F0E0C94FA0D0E9479
:101E30001C0E68F39923B1F3552391F3951B550BB1
:101E4000BB27AA2762177307840738F09F5F5F4F8D
:101E5000220F331F441FAA1FA9F335D00E2E3AF0CC
:101E6000E0E832D091505040E695001CCAF72BD0E4
:101E7000FE2F29D0660F771F881FBB1F2617370735
:101E80004807AB07B0E809F0BB0B802DBF01FF2767
:101E900093585F4F3AF09E3F510578F00C94F40D43
:101EA0000C943F0E5F3FE4F3983ED4F3869577950C
:101EB0006795B795F7959F5FC9F7880F911D969520
:101EC000879597F90895E1E0660F771F881FBB1F7C
:101ED000621773078407BA0720F0621B730B840B29
:101EE000BA0BEE1F88F7E09508950E947C0F689466
:101EF000B1110C943F0E08950E94240E88F09F5754
:101F000098F0B92F9927B751B0F0E1F0660F771F1D
:101F1000881F991F1AF0BA95C9F714C0B13091F013
:101F20000E943E0EB1E008950C943E0E672F782F6C
:101F30008827B85F39F0B93FCCF3869577956795D8
:101F4000B395D9F73EF490958095709561957F4F44
:101F50008F4F9F4F08950E94600D08F48FEF0895F2
:101F6000EE0FFF1F0590F491E02D09940F931F933E
:101F7000CF93DF938230910510F482E090E0E091FE
:101F80002C03F0912D0320E030E0A0E0B0E030978A
:101F900019F1408151810281138148175907C8F016
:101FA0008417950769F4109731F012960C931297E5
:101FB00013961C9327C000932C0310932D0322C06B
:101FC0002115310519F04217530718F49A01BD0184
:101FD000EF01DF01F801DBCF21153105F9F0281BF6
:101FE000390B2430310580F48A819B81611571059C
:101FF00021F0FB019383828304C090932D0380938F
:102000002C03FE01329644C0FE01E20FF31F8193C0
:10201000919322503109398328833AC020912A03B1
:1020200030912B03232B41F42091020130910301C5
:1020300030932B0320932A0320910001309101015A
:102040002115310541F42DB73EB74091040150915F
:102050000501241B350BE0912A03F0912B03E217B5
:10206000F307A0F42E1B3F0B2817390778F0AC01BB
:102070004E5F5F4F2417350748F04E0F5F1F509398
:102080002B0340932A038193919302C0E0E0F0E098
:10209000CF01DF91CF911F910F910895CF93DF93DF
:1020A000009709F481C0FC01329713821282A0913B
:1020B0002C03B0912D03109781F420813181820F80
:1020C000931F20912A0330912B032817390751F5CC
:1020D000F0932B03E0932A0367C0ED0120E030E08A
:1020E000CE17DF0740F44A815B819E0141155105FF
:1020F000F1F0EA01F5CFD383C28340815181840F8F
:10210000951FC817D90759F488819981840F951FA5
:102110000296918380838A819B8193838283211598
:10212000310529F4F0932D03E0932C033DC0E90120
:10213000FB83EA8349915991C40FD51FEC17FD0722
:1021400061F480819181840F951F0296E901998342
:102150008883828193819B838A83E0E0F0E01296FA
:102160008D919C911397009719F0FD01DC01F7CF39
:102170008D919C9111979D012E5F3F4F820F931F70
:1021800020912A0330912B032817390769F43097DF
:1021900029F410922D0310922C0302C01382128294
:1021A000B0932B03A0932A03DF91CF910895A0E071
:1021B000B0E0EDEDF0E10C94540EEC01009721F449
:1021C000CB010E94B60FB4C0FC01E60FF71F9C01C3
:1021D00022503109E217F30708F4A8C0D9010D9184
:1021E0001C91119706171707B0F00530110508F478
:1021F0009BC0C80104978617970708F495C0025042
:102200001109061B170B019311936D937C93CF015A
:102210000E944E1089C05B01A01AB10A4C01800EC9
:10222000911EA0912C03B0912D03612C712CE12CF7
:10223000F12C109709F446C08D919C911197A81527
:10224000B905B1F56C0142E0C40ED11CCA14DB041F
:1022500078F14C018A189B08640142E0C40ED11C3D
:102260001296BC9012971396AC91B5E0CB16D104A0
:1022700040F0B282A38391828082D9016D937C93D6
:1022800009C00E5F1F4F800F911FF901918380835A
:10229000EB2DFA2FE114F10431F0D7011396FC93E2
:1022A000EE93129741C0F0932D03E0932C033CC0B2
:1022B0006816790608F43C017D0112960D90BC91D8
:1022C000A02DB7CF80912A0390912B0388169906F1
:1022D000E1F466167706C8F480910001909101013F
:1022E000009741F48DB79EB74091040150910501CC
:1022F000841B950BE817F907C8F4F0932B03E093C0
:102300002A03F901718360830FC0CB010E94B60FCD
:102310007C01009759F0A801BE010E94A211CE01D4
:102320000E944E10C70104C0CE0102C080E090E0C0
:10233000CDB7DEB7EEE00C94700E81E090E0F8943B
:102340000C94B211FB01DC0102C001900D924150CE
:102350005040D8F70895FB01DC0101900D92002058
:10236000E1F7089510E0C0E8D0E004C0FE010E944B
:0E237000B00F2196C138D107C9F7F894FFCFFE
:10237E0000002E0380000000000073070000000024
:10238E008D024F0240020000000083037E03000016
:10239E000000DB03C003000000001604340300003D
:1023AE00000084040E06000000005B048803000099
:1023BE0000003401280800000000D1013A01680134
:1023CE001E02990177018B01000000001D03D70248
:1023DE006C6F3A000D0A004175746F4D6F64655451
:1023EE0061736B2D3E53746174652043686F6F7318
:1023FE00656E004175746F4D6F64655461736B2D1E
:10240E003E57616974004175746F4D6F6465546118
:10241E00736B2D3E466C6F77206769C3A020736582
:10242E00747461746F206E6F6E20736920736120F7
:10243E00646F7665004175746F4D6F64655461739A
:10244E006B2D3E4572726F72004175746F4D6F64E5
:10245E00655461736B2D3E49646C65004175746FF4
:10246E004D6F64655461736B2D3E536574464C6FAE
:10247E007720504D494E004175746F4D6F64655411
:10248E0061736B2D3E536574464C6F7720504D45EE
:10249E0044004175746F4D6F64655461736B2D3ECE
:0E24AE00536574464C6F7720504D4158000026
:00000001FF
